:1000000012C100002EC100002CC100002AC1000056
:1000100028C1000026C1000024C1000022C1000048
:1000200020C100001EC100001CC100001AC1000058
:1000300018C1000016C1000014C1000012C1000068
:100040000C9441080C944B080DC100000AC100003B
:1000500008C100000C94AF0A04C1000002C10000F6
:1000600000C10000FEC00000FCC00000FAC000009B
:10007000F8C00000F6C00000F4C00000F2C00000AC
:10008000F0C00000EEC00000ECC000000C94760A46
:10009000E8C00000640A6A0A6A0A6A0A6A0A6A0A06
:1000A0006A0A6A0A95086A0A6A0A6A0A6A0A6A0A87
:1000B0006A0A6A0A95086A0A6A0A6A0A6A0A6A0A77
:1000C0006A0A6A0AA9086A0A6A0A6A0A6A0A6A0A53
:1000D0006A0A6A0A5A096A0A6A0A6A0A6A0A6A0A91
:1000E0006A0A6A0AA9086A0A6A0A6A0A6A0A6A0A33
:1000F0006A0A6A0AE6086A0A6A0A6A0A6A0A6A0AE6
:100100006A0A6A0A5C0A6A0A6A0A6A0A6A0A6A0A5D
:100110006A0A6A0AEE086A0A6A0A6A0A6A0A6A0ABD
:100120006A0A6A0A5A096A0A6A0A6A0A6A0A6A0A40
:100130006A0A6A0AF6086A0A6A0A6A0A6A0A6A0A95
:100140006A0A6A0A5A096A0A6A0A6A0A6A0A6A0A20
:100150006A0A6A0A6A096A0A6A0A6A0A6A0A6A0A00
:100160006A0A6A0A62096A0A6A0A6A0A6A0A6A0AF8
:100170006A0A6A0A6A096A0A6A0A6A0A6A0A6A0AE0
:100180006A0A6A0A62096A0A6A0A6A0A6A0A6A0AD8
:100190006A0A6A0A7F096A0A6A0A6A0A6A0A6A0AAB
:1001A0006A0A6A0AC9096A0A6A0A6A0A6A0A6A0A51
:1001B0006A0A6A0A7F096A0A6A0A6A0A6A0A6A0A8B
:1001C0006A0A6A0AC9096A0A6A0A6A0A6A0A6A0A31
:1001D0006A0A6A0ABC096A0A6A0A6A0A6A0A6A0A2E
:1001E0006A0A6A0AD1096A0A6A0A6A0A6A0A6A0A09
:1001F0006A0A6A0AD1096A0A6A0A6A0A6A0A6A0AF9
:100200006A0A6A0AEB096A0A6A0A6A0A6A0A6A0ACE
:100210006A0A6A0AC9096A0A6A0A6A0A6A0A6A0AE0
:100220006A0A6A0A5B0911241FBECFEFD0E1DEBF64
:10023000CDBF12E0A0E0B1E0E0E3F7E100E00BBFEA
:1002400002C007900D92AA30B107D9F722E0AAE0C8
:10025000B2E001C01D92A93DB207E1F7D7D20C94DC
:10026000960BCECE1F920F920FB60F9211240BB6A3
:100270000F922F933F934F935F936F937F938F933F
:100280009F93AF93BF93EF93FF9381E028D28DD1DB
:1002900080E025D2FF91EF91BF91AF919F918F9117
:1002A0007F916F915F914F913F912F910F900BBE76
:1002B0000F900FBE0F901F901895CF92DF92EF9284
:1002C0000F931F93BAD07ED1C12CD12CEE24E3948E
:1002D0000FEF17E020E230E048E060E080E077D107
:1002E0000F2EF7E2CF2ED12CF02D20E631E048E0A2
:1002F00062E081E06CD10F2EF9E0CF2ED12CF02DF1
:1003000023E930E048E062E082E061D121E830E0BA
:1003100048E062E083E05BD10F2EF7E2CF2ED12CD4
:10032000F02D20E231E048E060E084E050D10F2E73
:10033000FAE0CF2ED12CF02D20E130E048E062E051
:1003400085E045D147E261E081E0D7D549E061E051
:1003500082E0D3D549E061E083E0CFD5EBEDF0E07A
:1003600080818062808381E080930A021F910F91D7
:10037000EF90DF90CF90089550D0882319F080E05F
:100380003AC2089581E037C20895ACD1882359F06C
:100390003AD1ABD1EBEDF0E0808180628083808147
:1003A00080688083789480910A02811104C066D1AC
:1003B00081E080930A02D8D1DFCF08958091F300C5
:1003C0002091F20090E0880F991F880F991F880FE5
:1003D000991F229526952770820F911D08959C01E3
:1003E0003695279536952795369527952093F300D2
:1003F0008295880F807E8093F20008959C01369547
:10040000279536952795369527952093F700829561
:10041000880F807E8093F60008958091EA00089509
:100420008091EB000895E9EFF0E08081208190E079
:10043000982F8827820F911D0895CF93DF93E8EDC1
:10044000F0E080818160808380818D7F808380E087
:10045000CDEED0E0AFEEB0E0EEEEF0E0982F92956A
:10046000907F98831C9210828F5F8F30B9F786E05F
:100470008093E20084E08093E30083E18093E400D2
:10048000E8EDF0E080818D7F8083DF91CF9108954A
:10049000883070F0EFEDF0E0208170E0AB0102C039
:1004A000440F551F8A95E2F7CA01822B8083089575
:1004B000EEEDF0E0208170E0AB0102C0440F551F6B
:1004C0008A95E2F7CA01822B80830895EF920F93F9
:1004D0001F93CF93C82F613089F06230D1F4829599
:1004E000807F8093ED0040584093EF00C90177DF93
:1004F000C80184DF6E2D8C2FCBDF0BC0C295C07F6F
:10050000C093ED00405C4093EF00C90168DFC80173
:1005100075DFCF911F910F91EF900895EF92FF92A9
:100520000F931F93CF93DF93E82E8295807F809364
:10053000ED008091EF008F70F82E0E2D10E086E117
:10054000E89EE0011124C15BDD4FF88637DF9F8311
:100550008E8369DF9B8B8A8BFF20B9F080E0CDEE24
:10056000D0E0AAEFB0E096E1909F9001919F300D0E
:100570001124215B3D4F48819C914770F901E40FA4
:10058000F11D91878F5F8F11F6CF8E2DD1D4EEEEB6
:10059000F0E080818F7980831092EF00DF91CF911E
:1005A0001F910F91FF90EF9008958091EC0082953C
:1005B0008F7080934E0280914E02B0DF81E0809375
:1005C000D40208951092D4021092D5020895CF92C9
:1005D000DF92EF920F931F9396E1899FF001112410
:1005E000E15BFD4F808361834087D58AC48A37836E
:1005F000268314830383E58269DF1F910F91EF90B7
:10060000DF90CF900895EF92FF920F931F93CF93B7
:10061000DF93C0E0D0E00F2EF6E1FF2EF02DFC9E20
:10062000F001FD9EF00D1124E15BFD4F218122239D
:10063000D1F0FC9EF001FD9EF00D1124E15BFD4F19
:100640002181213081F0FC9EF001FD9EF00D1124EE
:10065000E15BFD4FE5800381148126813781408570
:100660006181808133DF2196C530D105C1F6DF91EC
:10067000CF911F910F91FF90EF900895EF92FF920D
:100680000F931F93CF93DF93C0E0D0E00F2EF6E1DE
:10069000FF2EF02DFC9EF001FD9EF00D1124E15B7C
:1006A000FD4F8181882381F0FC9EF001FD9EF00DBD
:1006B0001124E15BFD4FE5800381148126813781A0
:1006C00040856181808102DF2196C530D10511F717
:1006D000DF91CF911F910F91FF90EF90089580933C
:1006E000D30208958091D40208951092D4020895FF
:1006F00026E1829FC0011124FC01EB5AFD4F80E1ED
:10070000DB0101900D928A95E1F7089526E1829F21
:10071000C0011124FC01E15BFD4F86E1DB0101908A
:100720000D928A95E1F70895CF93DF93CBEDD0E05A
:1007300098819F7D988398819F7E988326E1829FF0
:10074000C0011124DC01A15BBD4F86E1FB010190DA
:100750000D928A95E1F78881806288838881806123
:100760008883DF91CF910895CF93DF9380E090E06D
:10077000C0E0D0E066E1689FF001699FF00D1124B0
:10078000E15BFD4F2181237030E0AC01440F551F28
:1007900002C0220F331F4A95E2F7C20FD31F019602
:1007A0008630910541F73CDE8093C60236DE8093A9
:1007B000C7028091D9008093C8028091C0008093C5
:1007C000C902C093CA02D093CB02DF91CF910895A2
:1007D00087E099D720E048E469E380E066D481E0CF
:1007E00085D402D0000008950D9A159A0F9A179A91
:1007F0000E9A169A08958093D802882319F08130B2
:1008000019F0089515980895159A0895E1DF55DDBA
:10081000EBEDF0E0808180688083E8EDF0E080819E
:10082000826080837AD378948CD3AFDD6AD7FCCF93
:10083000CF93DF93CDB7DEB766970FB6F894DEBFE0
:100840000FBECDBFBE016F5F7F4F80E05FDF1E8AAE
:100850001D8ABE016F5F7F4F80E066DF66960FB630
:10086000F894DEBF0FBECDBFDF91CF910895CF9337
:10087000DF93CDB7DEB766970FB6F894DEBF0FBE35
:10088000CDBFBE016F5F7F4F81E040DF1E8A1D8AB2
:10089000BE016F5F7F4F81E047DF66960FB6F89429
:1008A000DEBF0FBECDBFDF91CF910895CF93DF9311
:1008B000CDB7DEB766970FB6F894DEBF0FBECDBFDB
:1008C000BE016F5F7F4F82E021DF1E8A1D8ABE015D
:1008D0006F5F7F4F82E028DF66960FB6F894DEBF29
:1008E0000FBECDBFDF91CF910895CF93DF93CDB7EA
:1008F000DEB766970FB6F894DEBF0FBECDBFBE0160
:100900006F5F7F4F83E002DF1E8A1D8ABE016F5F2B
:100910007F4F83E009DF66960FB6F894DEBF0FBE07
:10092000CDBFDF91CF910895CF93DF93CDB7DEB7E1
:1009300066970FB6F894DEBF0FBECDBFBE016F5FE6
:100940007F4F84E0E3DE1E8A1D8ABE016F5F7F4F0A
:1009500084E0EADE66960FB6F894DEBF0FBECDBF28
:10096000DF91CF910895CF93DF93CDB7DEB7669730
:100970000FB6F894DEBF0FBECDBFBE016F5F7F4FD5
:1009800085E0C4DE1E8A1D8ABE016F5F7F4F85E051
:10099000CBDE66960FB6F894DEBF0FBECDBFDF91FB
:1009A000CF910895CF93DF93CDB7DEB766970FB69B
:1009B000F894DEBF0FBECDBFBE016F5F7F4F86E0F4
:1009C000A5DE1E8A1D8ABE016F5F7F4F86E0ACDE0A
:1009D00066960FB6F894DEBF0FBECDBFDF91CF9104
:1009E0000895CF93DF93CDB7DEB766970FB6F8942F
:1009F000DEBF0FBECDBFBE016F5F7F4F87E086DEDB
:100A00001E8A1D8ABE016F5F7F4F87E08DDE66966E
:100A10000FB6F894DEBF0FBECDBFDF91CF91089522
:100A2000CF93DF93CDB7DEB766970FB6F894DEBFEE
:100A30000FBECDBFBE016F5F7F4F88E067DE1E8AAD
:100A40001D8ABE016F5F7F4F88E06EDE66960FB62F
:100A5000F894DEBF0FBECDBFDF91CF910895CF9345
:100A6000DF93CDB7DEB766970FB6F894DEBF0FBE43
:100A7000CDBFBE016F5F7F4F89E048DE1E8A1D8AB1
:100A8000BE016F5F7F4F89E04FDE66960FB6F89428
:100A9000DEBF0FBECDBFDF91CF910895CF93DF931F
:100AA000CDB7DEB766970FB6F894DEBF0FBECDBFE9
:100AB000BE016F5F7F4F8AE029DE1E8A1D8ABE015C
:100AC0006F5F7F4F8AE030DE66960FB6F894DEBF28
:100AD0000FBECDBFDF91CF910895CF93DF93CDB7F8
:100AE000DEB766970FB6F894DEBF0FBECDBFBE016E
:100AF0006F5F7F4F8BE00ADE1E8A1D8ABE016F5F2B
:100B00007F4F8BE011DE66960FB6F894DEBF0FBE06
:100B1000CDBFDF91CF910895CF93DF93CDB7DEB7EF
:100B200066970FB6F894DEBF0FBECDBFBE016F5FF4
:100B30007F4F8CE0EBDD1E8A1D8ABE016F5F7F4F09
:100B40008CE0F2DD66960FB6F894DEBF0FBECDBF27
:100B5000DF91CF910895CF93DF93CDB7DEB766973E
:100B60000FB6F894DEBF0FBECDBFBE016F5F7F4FE3
:100B70008DE0CCDD1E8A1D8ABE016F5F7F4F8DE048
:100B8000D3DD66960FB6F894DEBF0FBECDBFDF9102
:100B9000CF910895CF93DF93CDB7DEB766970FB6A9
:100BA000F894DEBF0FBECDBFBE016F5F7F4F8EE0FA
:100BB000ADDD1E8A1D8ABE016F5F7F4F8EE0B4DD02
:100BC00066960FB6F894DEBF0FBECDBFDF91CF9112
:100BD0000895CF93DF93DB01EBE0F2E02EE0EF012D
:100BE00019922A95E9F74EE050E060E070E04D93ED
:100BF0005D936D937C931397DC01ED93FC93DF91F0
:100C0000CF910895CF93DF93DB01E9E1F2E02EE08D
:100C1000EF0119922A95E9F74EE050E060E070E0AC
:100C20004D935D936D937C931397DC01ED93FC934F
:100C3000DF91CF910895CF93DF931F92CDB7DEB7A9
:100C400089838981998182958F708A50823030F4AE
:100C50009F7081E0953018F080E001C080E00F9037
:100C6000DF91CF9108950097A9F021153105410535
:100C7000510551F0FC01280F391F90E08191980F28
:100C8000E217F307D9F701C090E081E0961719F059
:100C900080E0089580E00895BF92CF92DF92EF92B6
:100CA000FF920F931F93CF93DF93CDB7DEB7669775
:100CB0000FB6F894DEBF0FBECDBF6C01FC01808182
:100CC0008F70B82EF4E0F817B8F1E114F1040105C3
:100CD0001105A1F1A80197012150310941095109DC
:100CE000F601E20FF31F6081C601BDDF182FBE01C0
:100CF0006F5F7F4F8B2D0ADD112309F1F601818192
:100D000090E0982F88272281822B98878F83838178
:100D10008987848590E09E8B8D8B349688E0DE01F8
:100D20001A9601900D928A95E1F7BE016F5F7F4F91
:100D30008B2DFADC11E003C010E001C010E0812F20
:100D400066960FB6F894DEBF0FBECDBFDF91CF9190
:100D50001F910F91FF90EF90DF90CF90BF9008957B
:100D6000CF92DF92EF92FF920F931F93CF93DF9377
:100D7000EC016A017B01009739F1411551056105CC
:100D8000710511F19A01AB01215031094109510955
:100D9000FC01E20FF31F608166DF8823A9F09881D0
:100DA000892F82958F708A3021F49F709093000173
:100DB0000BC08B3049F48701760120E030E0A901B7
:100DC00060E070E0CE0168DFDF91CF911F910F915D
:100DD000FF90EF90DF90CF900895009779F0411544
:100DE00051056105710561F0FC01480F591F80E054
:100DF0009191890FE417F507D9F7089580E00895D8
:100E000080E00895CF93DF93EC01009741F16115E5
:100E1000710539F1452B39F1809100018F70806B9C
:100E20008883FB018181898380818A8382818B838E
:100E3000DE011496339689E001900D928A95E1F7D0
:100E4000FB0186858C874DE050E060E070E0CE01CC
:100E5000C4DF8D8785E0809300016EE005C060E00F
:100E600003C060E001C060E070E080E090E0DF91EE
:100E7000CF9108950F931F93CF93DF93CDB7DEB734
:100E8000A6970FB6F894DEBF0FBECDBF8C01809140
:100E90000001853000F5BE016F5F7F4F29DCBE0188
:100EA0006F5E7F4F8091000131DC4B8150E060E04C
:100EB00070E04C5F5F4F6F4F7F4F4E3051056105C3
:100EC000710568F4AE014F5E5F4FBE016F5F7F4FEB
:100ED000C80198DF07C060E070E0CB0103C060E0AC
:100EE00070E0CB01A6960FB6F894DEBF0FBECDBF63
:100EF000DF91CF911F910F91089527E0829FC0014C
:100F00001124FC01EF5FFE4F608350E0440F551F3A
:100F100046595E4F52834183089541E062E085E087
:100F200087D08DE4A1D080E09DD081E09FC008955E
:100F300027E0829FC0011124FC01EF5FFE4F148265
:100F400008954F925F926F927F928F929F92AF928D
:100F5000BF92CF92DF92EF92FF920F931F93CF93A6
:100F6000DF937DD081FD53C087D0882309F44FC023
:100F700086D0C1E0D1E005E011E00F2EF4E0EF2EC5
:100F8000F1E0FF2EF02D0F2EFEE6CF2EF1E0DF2E4A
:100F9000F02D712C66246394512C8881882371F183
:100FA000E981FA818181882349F19081992331F186
:100FB0005801D8012C914701F7013081332339F0D2
:100FC000313049F4762C281730F4752C04C0762C77
:100FD000291708F4752C772071F0462C3111452C17
:100FE000442031F0D5011196ED91FC9112970995AD
:100FF000F4014082252D2F5FD5012C932796095FA0
:101000001F4FB7E0EB0EF11C0C151D0531F6DF91FB
:10101000CF911F910F91FF90EF90DF90CF90BF90F5
:10102000AF909F908F907F906F905F904F900895BA
:10103000877090E1499FA00111244073633031F023
:10104000623031F0613031F490E405C098E403C0BF
:1010500098E001C090E0482B492B44BD0895809151
:101060006E00089586BD089587BD0895811102C060
:1010700027980895279A089585B382700895A99AAC
:1010800008951F920F920FB60F9211240F900FBE6A
:101090000F901F9018951F920F920FB60F92112468
:1010A0000F900FBE0F901F90189590E0109227029E
:1010B0002093B9004093B800662319F06093BA00FA
:1010C00003C029E32093BA00882331F0EAEBF0E073
:1010D00080818160808305C0EAEBF0E080818E7FB3
:1010E0008083946090649093BC000895ECEBF0E0F2
:1010F000908180FB90F9906890830895CF92DF9261
:10110000EF92FF920F931F93CF93DF93D091B9008B
:10111000D87FC091BC004D2F50E0493C510508F0EC
:10112000D9C1FA01E65BFF4FFBC210923002109268
:101130003102109232021092330280913C0280936D
:10114000BB00C460CF7DCF7EC06881E08093270262
:10115000C1C14091300250913102609132027091D0
:101160003302009134021091350220913602309101
:101170003702401751076207730700F580913A0262
:1011800090913B028A019B010F5F1F4F2F4F3F4FF2
:1011900000933002109331022093320230933302D5
:1011A000FC01E40FF51F80818093BB00C460CF7DFC
:1011B000CF7EC06881E0809327028CC11092270205
:1011C000C460CF7DC061C064C06884C1C460CF7D8D
:1011D000C061C064C068109227027CC1C460CF7D2A
:1011E000CF7EC06881E08093270274C100913402F1
:1011F0001091350220913602309137024091300231
:10120000509131026091320270913302680179018C
:1012100081E0C81AD108E108F1084C155D056E059A
:101220007F0508F580913A0290913B028A019B016B
:101230000F5F1F4F2F4F3F4F00933002109331022B
:1012400020933202309333022091BB00FC01E40F63
:10125000F51F2083C460CF7DCF7EC064C06881E06D
:101260008093270237C1401751076207730708F0C0
:1012700031C180913A0290913B028A019B010F5F3C
:101280001F4F2F4F3F4F0093300210933102209396
:101290003202309333022091BB00FC01E40FF51FB2
:1012A0002083C460CF7DCF7ECF7BC06881E08093F8
:1012B000270210C1C061C460CF7DC064C0681092B5
:1012C000270208C1C460CF7EC064C06881E08093FB
:1012D000270200C1C460CF7EC064C068109228029B
:1012E0001092290210922A0210922B026CE272E0F4
:1012F00088E392E06EDC81E080932702EBC04091AE
:1013000028025091290260912A0270912B020091CB
:101310002C0210912D0220912E0230912F024017A5
:1013200051076207730700F58091380290913902E6
:101330008A019B010F5F1F4F2F4F3F4F00932802E1
:101340001093290220932A0230932B022091BB0094
:10135000FC01E40FF51F2083C460CF7EC064C06829
:1013600081E080932702B6C0C460CF7ECF7BC06887
:1013700081E080932702AEC040912802509129025B
:1013800060912A0270912B0280913802909139026B
:10139000E7DCC460CF7DCF7EC064C06810922702B6
:1013A00099C0109228021092290210922A021092DB
:1013B0002B026CE272E088E392E024DC8091380238
:1013C0009091390257DD60932C0270932D02809327
:1013D0002E0290932F0240912C0250912D02609189
:1013E0002E0270912F02411551056105710509F416
:1013F00059C0009128021091290220912A023091AF
:101400002B026A017B0181E0C81AD108E108F108CA
:101410000C151D052E053F0500F5809138029091B1
:101420003902B901A8014F5F5F4F6F4F7F4F409363
:1014300028025093290260932A0270932B02FC0128
:10144000E00FF11F80818093BB00C460CF7EC06439
:10145000C06881E0809327023DC004171507260766
:10146000370700F58091380290913902B901A8013F
:101470004F5F5F4F6F4F7F4F409328025093290279
:1014800060932A0270932B02FC01E00FF11F808110
:101490008093BB00C460CF7ECF7BC06881E0809327
:1014A000270218C01092BB00C460CF7ECF7BC068FB
:1014B00081E0809327020EC0C460CF7DCF7EC068DC
:1014C000C0641092270206C0CF7DC061C064C068AE
:1014D00010922702C093BC008D2FDF91CF911F91F6
:1014E0000F91FF90EF90DF90CF9008951F920F9291
:1014F0000FB60F9211240BB60F922F933F934F9379
:101500005F936F937F938F939F93AF93BF93EF936B
:10151000FF93F4DDFF91EF91BF91AF919F918F9178
:101520007F916F915F914F913F912F910F900BBEE3
:101530000F900FBE0F901F9018952091C00022238E
:1015400054F42091C0003091C60023FD06C0FC0178
:10155000308381E0089580E0089580E008951F922F
:101560000F920FB60F9211240BB60F92EF92FF92CB
:101570000F931F932F933F934F935F936F937F939B
:101580008F939F93AF93BF93EF93FF93CF93DF938B
:101590001F92CDB7DEB71982CE010196CEDF9091B2
:1015A0003D0291112EC0882309F491C080914A0216
:1015B00090914B02892B09F48AC080914602909148
:1015C0004702A0914802B0914902892B8A2B8B2BAC
:1015D00009F056C07CC081E080933D02E0914A0250
:1015E000F0914B0281E090E0A0E0B0E080933E02F9
:1015F00090933F02A0934002B0934102898180837F
:1016000066C0882309F463C020914A0230914B02DE
:101610002115310509F45BC0809146029091470283
:10162000A0914802B09149020097A105B10569F562
:101630004EC0DB01CA010196A11DB11D80933E027F
:1016400090933F02A0934002B09341028981F90137
:10165000E40FF51F808326C020914202309143029F
:10166000409144025091450260914C0270914D02AC
:1016700080914A0290914B020FDB10923D0227C0ED
:101680008981D9DA882319F1A6CF40913E02509181
:101690003F026091400270914102481759076A0762
:1016A0007B0738F2E0904602F09047020091480232
:1016B0001091490280913E0290913F02A091400218
:1016C000B0914102E816F9060A071B0729F20F90AC
:1016D000DF91CF91FF91EF91BF91AF919F918F914A
:1016E0007F916F915F914F913F912F911F910F913A
:1016F000FF90EF900F900BBE0F900FBE0F901F90BA
:101700001895A89508958770886028E130E00FB695
:10171000F894A895209360000FBE80936000089510
:10172000EE0FFF1F0590F491E02D0994F894FFCF80
:1017300005006A0100001804006A01000037040077
:101740006A0100005604006A0100007504006A0185
:1017500000009404006A010000B304006A01000064
:10176000D204006A010000F104006A0100001005C3
:10177000006A0100002F05006A0100004E05006AA2
:101780000100006D05006A0100008C05006A01007F
:1017900000AB05006A010000CA050000010101025A
:1017A00002020203030303040404040505050506FD
:1017B0000606060707070708080808090909090AAD
:1017C0000A0A0A0B0B0B0B0C0C0C0C0D0D0D0D0E5D
:1017D0000E0E0E0F0F0F0F1010101011111111120D
:1017E00012121213131313141414141515151516BD
:1017F0001616161717171718181818191919191A6D
:101800001A1A1A1B1B1B1B1C1C1C1C1D1D1D1D1E1C
:101810001E1E1E1F1F1F1F202020202121212122CC
:10182000222222232323232424242425252525267C
:0A1830002626262727272728282828
:00000001FF
